:08000000803102288731FB2F3B
:100D8E0022000C108C100C118C110C128C120800FD
:100D9E0024001508F0390538950095160230863175
:100DAE00E6268631080020002008F600F7017608B6
:100DBE00F4007708F50087318B2786310800F000A4
:100DCE00F101EC2E00000130F10770087102031CD6
:100DDE00F12EF22EE92E080020000E19F72EF82E15
:100DEE00062F240011082000A0000000200020087B
:100DFE002400910020000E1D052F062F012F080044
:100E0E00F201F301112F8631F32687310130F207FB
:100E1E000030F33D71087302031D172F7008720224
:100E2E00031C1A2F1B2F0A2F0800F401F501272F80
:100E3E000F308631E62687310130F4070030F53D5C
:100E4E0073087502031D2D2F72087402031C302FB8
:100E5E00312F1F2F080021008C0123008C0122004E
:100E6E008C0121008E1522001D1221000E1622006B
:100E7E009D1121008E1222009D1221000E15863129
:100E8E00CF26873108000030F9000030F80000301E
:100E9E00F7006430F600873162278731563086318D
:100EAE00E62687318731322787318631DA26873138
:100EBE005C2F803102280030FD000030FC00003035
:100ECE00FB000030FA00782F2930F2000030F300DA
:100EDE0087311C2787310130FA070030FB3DFC3D7E
:100EEE00FD3D79087D02031D862F78087C02031DC7
:100EFE00862F77087B02031D862F76087A02031C45
:100F0E00892F8A2F6B2F08008631C72687317518D7
:100F1E00912F942F22000C14962F22000C10F41BEC
:100F2E00992F9C2F22008C149E2F22008C10741B44
:100F3E00A12FA42F22000C15A62F22000C118C110C
:100F4E000C168C16E830F0000330F10087310727BD
:100F5E0087318631C7268731F41AB62FB92F220072
:100F6E000C14BB2F22000C10741ABE2FC12F22009E
:100F7E008C14C32F22008C10F419C62FC92F2200F7
:100F8E000C15CB2F22000C118C150C128C16E83080
:100F9E00F0000330F1008731072787318631C726ED
:100FAE0087317419DB2FDE2F22000C14E02F220064
:100FBE000C10F418E32FE62F22008C14E82F2200D9
:100FCE008C107418EB2FEE2F22000C15F02F220030
:100FDE000C118C150C168C12E830F0000330F10059
:100FEE0087310727873108002000A00120008731B4
:020FFE004A2F78
:020000040001F9
:04000E00E201FF3FCD
:00000001FF
